{
  "contractName": "NFT",
  "abi": [
    {
      "inputs": [],
      "stateMutability": "nonpayable",
      "type": "constructor"
    },
    {
      "anonymous": false,
      "inputs": [
        {
          "indexed": true,
          "internalType": "address",
          "name": "owner",
          "type": "address"
        },
        {
          "indexed": true,
          "internalType": "address",
          "name": "approved",
          "type": "address"
        },
        {
          "indexed": true,
          "internalType": "uint256",
          "name": "tokenId",
          "type": "uint256"
        }
      ],
      "name": "Approval",
      "type": "event"
    },
    {
      "anonymous": false,
      "inputs": [
        {
          "indexed": true,
          "internalType": "address",
          "name": "owner",
          "type": "address"
        },
        {
          "indexed": true,
          "internalType": "address",
          "name": "operator",
          "type": "address"
        },
        {
          "indexed": false,
          "internalType": "bool",
          "name": "approved",
          "type": "bool"
        }
      ],
      "name": "ApprovalForAll",
      "type": "event"
    },
    {
      "anonymous": false,
      "inputs": [
        {
          "indexed": false,
          "internalType": "address",
          "name": "user",
          "type": "address"
        },
        {
          "indexed": false,
          "internalType": "uint256",
          "name": "tokenId",
          "type": "uint256"
        }
      ],
      "name": "Breach",
      "type": "event"
    },
    {
      "anonymous": false,
      "inputs": [
        {
          "indexed": true,
          "internalType": "address",
          "name": "from",
          "type": "address"
        },
        {
          "indexed": true,
          "internalType": "address",
          "name": "to",
          "type": "address"
        },
        {
          "indexed": true,
          "internalType": "uint256",
          "name": "tokenId",
          "type": "uint256"
        }
      ],
      "name": "Transfer",
      "type": "event"
    },
    {
      "anonymous": false,
      "inputs": [
        {
          "indexed": false,
          "internalType": "uint256",
          "name": "tokenId",
          "type": "uint256"
        }
      ],
      "name": "landMinted",
      "type": "event"
    },
    {
      "anonymous": false,
      "inputs": [
        {
          "indexed": false,
          "internalType": "uint256",
          "name": "tokenId",
          "type": "uint256"
        }
      ],
      "name": "lordMinted",
      "type": "event"
    },
    {
      "inputs": [
        {
          "internalType": "address",
          "name": "to",
          "type": "address"
        },
        {
          "internalType": "uint256",
          "name": "tokenId",
          "type": "uint256"
        }
      ],
      "name": "approve",
      "outputs": [],
      "stateMutability": "nonpayable",
      "type": "function"
    },
    {
      "inputs": [
        {
          "internalType": "address",
          "name": "owner",
          "type": "address"
        }
      ],
      "name": "balanceOf",
      "outputs": [
        {
          "internalType": "uint256",
          "name": "",
          "type": "uint256"
        }
      ],
      "stateMutability": "view",
      "type": "function",
      "constant": true
    },
    {
      "inputs": [
        {
          "internalType": "uint256",
          "name": "tokenId",
          "type": "uint256"
        }
      ],
      "name": "getApproved",
      "outputs": [
        {
          "internalType": "address",
          "name": "",
          "type": "address"
        }
      ],
      "stateMutability": "view",
      "type": "function",
      "constant": true
    },
    {
      "inputs": [
        {
          "internalType": "address",
          "name": "owner",
          "type": "address"
        },
        {
          "internalType": "address",
          "name": "operator",
          "type": "address"
        }
      ],
      "name": "isApprovedForAll",
      "outputs": [
        {
          "internalType": "bool",
          "name": "",
          "type": "bool"
        }
      ],
      "stateMutability": "view",
      "type": "function",
      "constant": true
    },
    {
      "inputs": [],
      "name": "landNFT",
      "outputs": [
        {
          "internalType": "uint256",
          "name": "",
          "type": "uint256"
        }
      ],
      "stateMutability": "view",
      "type": "function",
      "constant": true
    },
    {
      "inputs": [],
      "name": "lordNFT",
      "outputs": [
        {
          "internalType": "uint256",
          "name": "",
          "type": "uint256"
        }
      ],
      "stateMutability": "view",
      "type": "function",
      "constant": true
    },
    {
      "inputs": [],
      "name": "name",
      "outputs": [
        {
          "internalType": "string",
          "name": "",
          "type": "string"
        }
      ],
      "stateMutability": "view",
      "type": "function",
      "constant": true
    },
    {
      "inputs": [
        {
          "internalType": "uint256",
          "name": "tokenId",
          "type": "uint256"
        }
      ],
      "name": "ownerOf",
      "outputs": [
        {
          "internalType": "address",
          "name": "",
          "type": "address"
        }
      ],
      "stateMutability": "view",
      "type": "function",
      "constant": true
    },
    {
      "inputs": [
        {
          "internalType": "address",
          "name": "from",
          "type": "address"
        },
        {
          "internalType": "address",
          "name": "to",
          "type": "address"
        },
        {
          "internalType": "uint256",
          "name": "tokenId",
          "type": "uint256"
        }
      ],
      "name": "safeTransferFrom",
      "outputs": [],
      "stateMutability": "nonpayable",
      "type": "function"
    },
    {
      "inputs": [
        {
          "internalType": "address",
          "name": "from",
          "type": "address"
        },
        {
          "internalType": "address",
          "name": "to",
          "type": "address"
        },
        {
          "internalType": "uint256",
          "name": "tokenId",
          "type": "uint256"
        },
        {
          "internalType": "bytes",
          "name": "_data",
          "type": "bytes"
        }
      ],
      "name": "safeTransferFrom",
      "outputs": [],
      "stateMutability": "nonpayable",
      "type": "function"
    },
    {
      "inputs": [
        {
          "internalType": "address",
          "name": "operator",
          "type": "address"
        },
        {
          "internalType": "bool",
          "name": "approved",
          "type": "bool"
        }
      ],
      "name": "setApprovalForAll",
      "outputs": [],
      "stateMutability": "nonpayable",
      "type": "function"
    },
    {
      "inputs": [
        {
          "internalType": "bytes4",
          "name": "interfaceId",
          "type": "bytes4"
        }
      ],
      "name": "supportsInterface",
      "outputs": [
        {
          "internalType": "bool",
          "name": "",
          "type": "bool"
        }
      ],
      "stateMutability": "view",
      "type": "function",
      "constant": true
    },
    {
      "inputs": [],
      "name": "symbol",
      "outputs": [
        {
          "internalType": "string",
          "name": "",
          "type": "string"
        }
      ],
      "stateMutability": "view",
      "type": "function",
      "constant": true
    },
    {
      "inputs": [],
      "name": "totalNFT",
      "outputs": [
        {
          "internalType": "uint256",
          "name": "",
          "type": "uint256"
        }
      ],
      "stateMutability": "view",
      "type": "function",
      "constant": true
    },
    {
      "inputs": [
        {
          "internalType": "address",
          "name": "from",
          "type": "address"
        },
        {
          "internalType": "address",
          "name": "to",
          "type": "address"
        },
        {
          "internalType": "uint256",
          "name": "tokenId",
          "type": "uint256"
        }
      ],
      "name": "transferFrom",
      "outputs": [],
      "stateMutability": "nonpayable",
      "type": "function"
    },
    {
      "inputs": [
        {
          "internalType": "uint256",
          "name": "amount",
          "type": "uint256"
        }
      ],
      "name": "deposit",
      "outputs": [],
      "stateMutability": "payable",
      "type": "function",
      "payable": true
    },
    {
      "inputs": [
        {
          "internalType": "bytes32",
          "name": "hashVal",
          "type": "bytes32"
        },
        {
          "internalType": "string",
          "name": "_tokenURI",
          "type": "string"
        },
        {
          "internalType": "bool",
          "name": "lord",
          "type": "bool"
        }
      ],
      "name": "mint",
      "outputs": [],
      "stateMutability": "payable",
      "type": "function",
      "payable": true
    },
    {
      "inputs": [
        {
          "internalType": "uint256",
          "name": "tokenId",
          "type": "uint256"
        }
      ],
      "name": "tokenURI",
      "outputs": [
        {
          "internalType": "string",
          "name": "",
          "type": "string"
        }
      ],
      "stateMutability": "view",
      "type": "function",
      "constant": true
    },
    {
      "inputs": [],
      "name": "getTotalSupply",
      "outputs": [
        {
          "internalType": "uint256",
          "name": "",
          "type": "uint256"
        }
      ],
      "stateMutability": "view",
      "type": "function",
      "constant": true
    },
    {
      "inputs": [
        {
          "internalType": "uint256",
          "name": "tokenId",
          "type": "uint256"
        },
        {
          "internalType": "string",
          "name": "_newURI",
          "type": "string"
        }
      ],
      "name": "updateTokenURI",
      "outputs": [],
      "stateMutability": "nonpayable",
      "type": "function"
    }
  ],
  "bytecode": "0x60806040526000600755600060085560006009556040518060400160405280600481526020017f3132333400000000000000000000000000000000000000000000000000000000815250600b90805190602001906200006092919062000156565b503480156200006e57600080fd5b506040518060400160405280600781526020017f50726f70657254000000000000000000000000000000000000000000000000008152506040518060400160405280600381526020017f50525400000000000000000000000000000000000000000000000000000000008152508160009080519060200190620000f392919062000156565b5080600190805190602001906200010c92919062000156565b50505033600a60006101000a81548173ffffffffffffffffffffffffffffffffffffffff021916908373ffffffffffffffffffffffffffffffffffffffff1602179055506200026b565b828054620001649062000206565b90600052602060002090601f016020900481019282620001885760008555620001d4565b82601f10620001a357805160ff1916838001178555620001d4565b82800160010185558215620001d4579182015b82811115620001d3578251825591602001919060010190620001b6565b5b509050620001e39190620001e7565b5090565b5b8082111562000202576000816000905550600101620001e8565b5090565b600060028204905060018216806200021f57607f821691505b602082108114156200023657620002356200023c565b5b50919050565b7f4e487b7100000000000000000000000000000000000000000000000000000000600052602260045260246000fd5b613234806200027b6000396000f3fe60806040526004361061011e5760003560e01c80636352211e116100a0578063b88d4fde11610064578063b88d4fde146103d7578063c4e41b2214610400578063c87b56dd1461042b578063e3ddc7bb14610468578063e985e9c5146104845761011e565b80636352211e146102ed57806370a082311461032a57806395d89b4114610367578063a22cb46514610392578063b6b55f25146103bb5761011e565b806316dadbd2116100e757806316dadbd21461021c57806318e97fd11461024757806323b872dd1461027057806339d022e11461029957806342842e0e146102c45761011e565b80624563791461012357806301ffc9a71461014e57806306fdde031461018b578063081812fc146101b6578063095ea7b3146101f3575b600080fd5b34801561012f57600080fd5b506101386104c1565b6040516101459190612891565b60405180910390f35b34801561015a57600080fd5b5061017560048036038101906101709190612060565b6104c7565b6040516101829190612614565b60405180910390f35b34801561019757600080fd5b506101a06105a9565b6040516101ad919061262f565b60405180910390f35b3480156101c257600080fd5b506101dd60048036038101906101d891906120b2565b61063b565b6040516101ea9190612584565b60405180910390f35b3480156101ff57600080fd5b5061021a60048036038101906102159190611f94565b6106c0565b005b34801561022857600080fd5b506102316107d8565b60405161023e9190612891565b60405180910390f35b34801561025357600080fd5b5061026e600480360381019061026991906120db565b6107de565b005b34801561027c57600080fd5b5061029760048036038101906102929190611e8e565b610862565b005b3480156102a557600080fd5b506102ae6108c2565b6040516102bb9190612891565b60405180910390f35b3480156102d057600080fd5b506102eb60048036038101906102e69190611e8e565b6108c8565b005b3480156102f957600080fd5b50610314600480360381019061030f91906120b2565b6108e8565b6040516103219190612584565b60405180910390f35b34801561033657600080fd5b50610351600480360381019061034c9190611e29565b61099a565b60405161035e9190612891565b60405180910390f35b34801561037357600080fd5b5061037c610a52565b604051610389919061262f565b60405180910390f35b34801561039e57600080fd5b506103b960048036038101906103b49190611f58565b610ae4565b005b6103d560048036038101906103d091906120b2565b610afa565b005b3480156103e357600080fd5b506103fe60048036038101906103f99190611edd565b610afd565b005b34801561040c57600080fd5b50610415610b5f565b6040516104229190612891565b60405180910390f35b34801561043757600080fd5b50610452600480360381019061044d91906120b2565b610b69565b60405161045f919061262f565b60405180910390f35b610482600480360381019061047d9190611ff9565b610b7b565b005b34801561049057600080fd5b506104ab60048036038101906104a69190611e52565b610d47565b6040516104b89190612614565b60405180910390f35b60075481565b60007f80ac58cd000000000000000000000000000000000000000000000000000000007bffffffffffffffffffffffffffffffffffffffffffffffffffffffff1916827bffffffffffffffffffffffffffffffffffffffffffffffffffffffff1916148061059257507f5b5e139f000000000000000000000000000000000000000000000000000000007bffffffffffffffffffffffffffffffffffffffffffffffffffffffff1916827bffffffffffffffffffffffffffffffffffffffffffffffffffffffff1916145b806105a257506105a182610ddb565b5b9050919050565b6060600080546105b890612b11565b80601f01602080910402602001604051908101604052809291908181526020018280546105e490612b11565b80156106315780601f1061060657610100808354040283529160200191610631565b820191906000526020600020905b81548152906001019060200180831161061457829003601f168201915b5050505050905090565b600061064682610e45565b610685576040517f08c379a000000000000000000000000000000000000000000000000000000000815260040161067c906127f1565b60405180910390fd5b6004600083815260200190815260200160002060009054906101000a900473ffffffffffffffffffffffffffffffffffffffff169050919050565b60006106cb826108e8565b90508073ffffffffffffffffffffffffffffffffffffffff168373ffffffffffffffffffffffffffffffffffffffff16141561073c576040517f08c379a000000000000000000000000000000000000000000000000000000000815260040161073390612851565b60405180910390fd5b8073ffffffffffffffffffffffffffffffffffffffff1661075b610eb1565b73ffffffffffffffffffffffffffffffffffffffff16148061078a575061078981610784610eb1565b610d47565b5b6107c9576040517f08c379a00000000000000000000000000000000000000000000000000000000081526004016107c090612731565b60405180910390fd5b6107d38383610eb9565b505050565b60095481565b6107e7826108e8565b73ffffffffffffffffffffffffffffffffffffffff163373ffffffffffffffffffffffffffffffffffffffff1614610854576040517f08c379a000000000000000000000000000000000000000000000000000000000815260040161084b90612711565b60405180910390fd5b61085e8282610f72565b5050565b61087361086d610eb1565b82610fe6565b6108b2576040517f08c379a00000000000000000000000000000000000000000000000000000000081526004016108a990612871565b60405180910390fd5b6108bd8383836110c4565b505050565b60085481565b6108e383838360405180602001604052806000815250610afd565b505050565b6000806002600084815260200190815260200160002060009054906101000a900473ffffffffffffffffffffffffffffffffffffffff169050600073ffffffffffffffffffffffffffffffffffffffff168173ffffffffffffffffffffffffffffffffffffffff161415610991576040517f08c379a000000000000000000000000000000000000000000000000000000000815260040161098890612771565b60405180910390fd5b80915050919050565b60008073ffffffffffffffffffffffffffffffffffffffff168273ffffffffffffffffffffffffffffffffffffffff161415610a0b576040517f08c379a0000000000000000000000000000000000000000000000000000000008152600401610a0290612751565b60405180910390fd5b600360008373ffffffffffffffffffffffffffffffffffffffff1673ffffffffffffffffffffffffffffffffffffffff168152602001908152602001600020549050919050565b606060018054610a6190612b11565b80601f0160208091040260200160405190810160405280929190818152602001828054610a8d90612b11565b8015610ada5780601f10610aaf57610100808354040283529160200191610ada565b820191906000526020600020905b815481529060010190602001808311610abd57829003601f168201915b5050505050905090565b610af6610aef610eb1565b8383611320565b5050565b50565b610b0e610b08610eb1565b83610fe6565b610b4d576040517f08c379a0000000000000000000000000000000000000000000000000000000008152600401610b4490612871565b60405180910390fd5b610b598484848461148d565b50505050565b6000600754905090565b6060610b74826114e9565b9050919050565b6000610b863461163b565b600b604051602001610b99929190612560565b60405160208183030381529060405290506000600282604051610bbc9190612525565b602060405180830381855afa158015610bd9573d6000803e3d6000fd5b5050506040513d601f19601f82011682018060405250810190610bfc9190611fd0565b9050848114610c87577f42fa084e52ea62ad574fd599155d48cfde6e38b766dda881e3902162a81ff145336001600754610c369190612996565b604051610c449291906125eb565b60405180910390a16040517f08c379a0000000000000000000000000000000000000000000000000000000008152600401610c7e90612671565b60405180910390fd5b610c9034610afa565b600160076000828254610ca39190612996565b92505081905550610cb6336007546117e8565b610cc260075485610f72565b8215610d06577fe2daa3875eefa1aad689355ecb674de99d288dce3c676ad6ed31379c56fe26c6600754604051610cf99190612891565b60405180910390a1610d40565b7fa4bfb59da2aad84ce62d50278a343f4ad5463b66080a0c500d903d821c34455a600754604051610d379190612891565b60405180910390a15b5050505050565b6000600560008473ffffffffffffffffffffffffffffffffffffffff1673ffffffffffffffffffffffffffffffffffffffff16815260200190815260200160002060008373ffffffffffffffffffffffffffffffffffffffff1673ffffffffffffffffffffffffffffffffffffffff16815260200190815260200160002060009054906101000a900460ff16905092915050565b60007f01ffc9a7000000000000000000000000000000000000000000000000000000007bffffffffffffffffffffffffffffffffffffffffffffffffffffffff1916827bffffffffffffffffffffffffffffffffffffffffffffffffffffffff1916149050919050565b60008073ffffffffffffffffffffffffffffffffffffffff166002600084815260200190815260200160002060009054906101000a900473ffffffffffffffffffffffffffffffffffffffff1673ffffffffffffffffffffffffffffffffffffffff1614159050919050565b600033905090565b816004600083815260200190815260200160002060006101000a81548173ffffffffffffffffffffffffffffffffffffffff021916908373ffffffffffffffffffffffffffffffffffffffff160217905550808273ffffffffffffffffffffffffffffffffffffffff16610f2c836108e8565b73ffffffffffffffffffffffffffffffffffffffff167f8c5be1e5ebec7d5bd14f71427d1e84f3dd0314c0f7b2291e5b200ac8c7c3b92560405160405180910390a45050565b610f7b82610e45565b610fba576040517f08c379a0000000000000000000000000000000000000000000000000000000008152600401610fb190612791565b60405180910390fd5b80600660008481526020019081526020016000209080519060200190610fe1929190611c23565b505050565b6000610ff182610e45565b611030576040517f08c379a0000000000000000000000000000000000000000000000000000000008152600401611027906126f1565b60405180910390fd5b600061103b836108e8565b90508073ffffffffffffffffffffffffffffffffffffffff168473ffffffffffffffffffffffffffffffffffffffff1614806110aa57508373ffffffffffffffffffffffffffffffffffffffff166110928461063b565b73ffffffffffffffffffffffffffffffffffffffff16145b806110bb57506110ba8185610d47565b5b91505092915050565b8273ffffffffffffffffffffffffffffffffffffffff166110e4826108e8565b73ffffffffffffffffffffffffffffffffffffffff161461113a576040517f08c379a000000000000000000000000000000000000000000000000000000000815260040161113190612811565b60405180910390fd5b600073ffffffffffffffffffffffffffffffffffffffff168273ffffffffffffffffffffffffffffffffffffffff1614156111aa576040517f08c379a00000000000000000000000000000000000000000000000000000000081526004016111a1906126b1565b60405180910390fd5b6111b58383836119b6565b6111c0600082610eb9565b6001600360008573ffffffffffffffffffffffffffffffffffffffff1673ffffffffffffffffffffffffffffffffffffffff16815260200190815260200160002060008282546112109190612a1d565b925050819055506001600360008473ffffffffffffffffffffffffffffffffffffffff1673ffffffffffffffffffffffffffffffffffffffff16815260200190815260200160002060008282546112679190612996565b92505081905550816002600083815260200190815260200160002060006101000a81548173ffffffffffffffffffffffffffffffffffffffff021916908373ffffffffffffffffffffffffffffffffffffffff160217905550808273ffffffffffffffffffffffffffffffffffffffff168473ffffffffffffffffffffffffffffffffffffffff167fddf252ad1be2c89b69c2b068fc378daa952ba7f163c4a11628f55a4df523b3ef60405160405180910390a4505050565b8173ffffffffffffffffffffffffffffffffffffffff168373ffffffffffffffffffffffffffffffffffffffff16141561138f576040517f08c379a0000000000000000000000000000000000000000000000000000000008152600401611386906126d1565b60405180910390fd5b80600560008573ffffffffffffffffffffffffffffffffffffffff1673ffffffffffffffffffffffffffffffffffffffff16815260200190815260200160002060008473ffffffffffffffffffffffffffffffffffffffff1673ffffffffffffffffffffffffffffffffffffffff16815260200190815260200160002060006101000a81548160ff0219169083151502179055508173ffffffffffffffffffffffffffffffffffffffff168373ffffffffffffffffffffffffffffffffffffffff167f17307eab39ab6107e8899845ad3d59bd9653f200f220920489ca2b5937696c31836040516114809190612614565b60405180910390a3505050565b6114988484846110c4565b6114a4848484846119bb565b6114e3576040517f08c379a00000000000000000000000000000000000000000000000000000000081526004016114da90612651565b60405180910390fd5b50505050565b60606114f482610e45565b611533576040517f08c379a000000000000000000000000000000000000000000000000000000000815260040161152a906127d1565b60405180910390fd5b600060066000848152602001908152602001600020805461155390612b11565b80601f016020809104026020016040519081016040528092919081815260200182805461157f90612b11565b80156115cc5780601f106115a1576101008083540402835291602001916115cc565b820191906000526020600020905b8154815290600101906020018083116115af57829003601f168201915b5050505050905060006115dd611b52565b90506000815114156115f3578192505050611636565b60008251111561162857808260405160200161161092919061253c565b60405160208183030381529060405292505050611636565b61163184611b69565b925050505b919050565b60606000821415611683576040518060400160405280600181526020017f300000000000000000000000000000000000000000000000000000000000000081525090506117e3565b600082905060005b600082146116b557808061169e90612b74565b915050600a826116ae91906129ec565b915061168b565b60008167ffffffffffffffff8111156116f7577f4e487b7100000000000000000000000000000000000000000000000000000000600052604160045260246000fd5b6040519080825280601f01601f1916602001820160405280156117295781602001600182028036833780820191505090505b5090505b600085146117dc576001826117429190612a1d565b9150600a856117519190612bbd565b603061175d9190612996565b60f81b818381518110611799577f4e487b7100000000000000000000000000000000000000000000000000000000600052603260045260246000fd5b60200101907effffffffffffffffffffffffffffffffffffffffffffffffffffffffffffff1916908160001a905350600a856117d591906129ec565b945061172d565b8093505050505b919050565b600073ffffffffffffffffffffffffffffffffffffffff168273ffffffffffffffffffffffffffffffffffffffff161415611858576040517f08c379a000000000000000000000000000000000000000000000000000000000815260040161184f906127b1565b60405180910390fd5b61186181610e45565b156118a1576040517f08c379a000000000000000000000000000000000000000000000000000000000815260040161189890612691565b60405180910390fd5b6118ad600083836119b6565b6001600360008473ffffffffffffffffffffffffffffffffffffffff1673ffffffffffffffffffffffffffffffffffffffff16815260200190815260200160002060008282546118fd9190612996565b92505081905550816002600083815260200190815260200160002060006101000a81548173ffffffffffffffffffffffffffffffffffffffff021916908373ffffffffffffffffffffffffffffffffffffffff160217905550808273ffffffffffffffffffffffffffffffffffffffff16600073ffffffffffffffffffffffffffffffffffffffff167fddf252ad1be2c89b69c2b068fc378daa952ba7f163c4a11628f55a4df523b3ef60405160405180910390a45050565b505050565b60006119dc8473ffffffffffffffffffffffffffffffffffffffff16611c10565b15611b45578373ffffffffffffffffffffffffffffffffffffffff1663150b7a02611a05610eb1565b8786866040518563ffffffff1660e01b8152600401611a27949392919061259f565b602060405180830381600087803b158015611a4157600080fd5b505af1925050508015611a7257506040513d601f19601f82011682018060405250810190611a6f9190612089565b60015b611af5573d8060008114611aa2576040519150601f19603f3d011682016040523d82523d6000602084013e611aa7565b606091505b50600081511415611aed576040517f08c379a0000000000000000000000000000000000000000000000000000000008152600401611ae490612651565b60405180910390fd5b805181602001fd5b63150b7a0260e01b7bffffffffffffffffffffffffffffffffffffffffffffffffffffffff1916817bffffffffffffffffffffffffffffffffffffffffffffffffffffffff191614915050611b4a565b600190505b949350505050565b606060405180602001604052806000815250905090565b6060611b7482610e45565b611bb3576040517f08c379a0000000000000000000000000000000000000000000000000000000008152600401611baa90612831565b60405180910390fd5b6000611bbd611b52565b90506000815111611bdd5760405180602001604052806000815250611c08565b80611be78461163b565b604051602001611bf892919061253c565b6040516020818303038152906040525b915050919050565b600080823b905060008111915050919050565b828054611c2f90612b11565b90600052602060002090601f016020900481019282611c515760008555611c98565b82601f10611c6a57805160ff1916838001178555611c98565b82800160010185558215611c98579182015b82811115611c97578251825591602001919060010190611c7c565b5b509050611ca59190611ca9565b5090565b5b80821115611cc2576000816000905550600101611caa565b5090565b6000611cd9611cd4846128d1565b6128ac565b905082815260208101848484011115611cf157600080fd5b611cfc848285612acf565b509392505050565b6000611d17611d1284612902565b6128ac565b905082815260208101848484011115611d2f57600080fd5b611d3a848285612acf565b509392505050565b600081359050611d518161318b565b92915050565b600081359050611d66816131a2565b92915050565b600081359050611d7b816131b9565b92915050565b600081519050611d90816131b9565b92915050565b600081359050611da5816131d0565b92915050565b600081519050611dba816131d0565b92915050565b600082601f830112611dd157600080fd5b8135611de1848260208601611cc6565b91505092915050565b600082601f830112611dfb57600080fd5b8135611e0b848260208601611d04565b91505092915050565b600081359050611e23816131e7565b92915050565b600060208284031215611e3b57600080fd5b6000611e4984828501611d42565b91505092915050565b60008060408385031215611e6557600080fd5b6000611e7385828601611d42565b9250506020611e8485828601611d42565b9150509250929050565b600080600060608486031215611ea357600080fd5b6000611eb186828701611d42565b9350506020611ec286828701611d42565b9250506040611ed386828701611e14565b9150509250925092565b60008060008060808587031215611ef357600080fd5b6000611f0187828801611d42565b9450506020611f1287828801611d42565b9350506040611f2387828801611e14565b925050606085013567ffffffffffffffff811115611f4057600080fd5b611f4c87828801611dc0565b91505092959194509250565b60008060408385031215611f6b57600080fd5b6000611f7985828601611d42565b9250506020611f8a85828601611d57565b9150509250929050565b60008060408385031215611fa757600080fd5b6000611fb585828601611d42565b9250506020611fc685828601611e14565b9150509250929050565b600060208284031215611fe257600080fd5b6000611ff084828501611d81565b91505092915050565b60008060006060848603121561200e57600080fd5b600061201c86828701611d6c565b935050602084013567ffffffffffffffff81111561203957600080fd5b61204586828701611dea565b925050604061205686828701611d57565b9150509250925092565b60006020828403121561207257600080fd5b600061208084828501611d96565b91505092915050565b60006020828403121561209b57600080fd5b60006120a984828501611dab565b91505092915050565b6000602082840312156120c457600080fd5b60006120d284828501611e14565b91505092915050565b600080604083850312156120ee57600080fd5b60006120fc85828601611e14565b925050602083013567ffffffffffffffff81111561211957600080fd5b61212585828601611dea565b9150509250929050565b61213881612a51565b82525050565b61214781612a63565b82525050565b600061215882612948565b612162818561295e565b9350612172818560208601612ade565b61217b81612caa565b840191505092915050565b600061219182612948565b61219b818561296f565b93506121ab818560208601612ade565b80840191505092915050565b60006121c282612953565b6121cc818561297a565b93506121dc818560208601612ade565b6121e581612caa565b840191505092915050565b60006121fb82612953565b612205818561298b565b9350612215818560208601612ade565b80840191505092915050565b6000815461222e81612b11565b612238818661298b565b94506001821660008114612253576001811461226457612297565b60ff19831686528186019350612297565b61226d85612933565b60005b8381101561228f57815481890152600182019150602081019050612270565b838801955050505b50505092915050565b60006122ad60328361297a565b91506122b882612cbb565b604082019050919050565b60006122d0600c8361297a565b91506122db82612d0a565b602082019050919050565b60006122f3601c8361297a565b91506122fe82612d33565b602082019050919050565b600061231660248361297a565b915061232182612d5c565b604082019050919050565b600061233960198361297a565b915061234482612dab565b602082019050919050565b600061235c602c8361297a565b915061236782612dd4565b604082019050919050565b600061237f600b8361297a565b915061238a82612e23565b602082019050919050565b60006123a260388361297a565b91506123ad82612e4c565b604082019050919050565b60006123c5602a8361297a565b91506123d082612e9b565b604082019050919050565b60006123e860298361297a565b91506123f382612eea565b604082019050919050565b600061240b602e8361297a565b915061241682612f39565b604082019050919050565b600061242e60208361297a565b915061243982612f88565b602082019050919050565b600061245160318361297a565b915061245c82612fb1565b604082019050919050565b6000612474602c8361297a565b915061247f82613000565b604082019050919050565b600061249760298361297a565b91506124a28261304f565b604082019050919050565b60006124ba602f8361297a565b91506124c58261309e565b604082019050919050565b60006124dd60218361297a565b91506124e8826130ed565b604082019050919050565b600061250060318361297a565b915061250b8261313c565b604082019050919050565b61251f81612ac5565b82525050565b60006125318284612186565b915081905092915050565b600061254882856121f0565b915061255482846121f0565b91508190509392505050565b600061256c82856121f0565b91506125788284612221565b91508190509392505050565b6000602082019050612599600083018461212f565b92915050565b60006080820190506125b4600083018761212f565b6125c1602083018661212f565b6125ce6040830185612516565b81810360608301526125e0818461214d565b905095945050505050565b6000604082019050612600600083018561212f565b61260d6020830184612516565b9392505050565b6000602082019050612629600083018461213e565b92915050565b6000602082019050818103600083015261264981846121b7565b905092915050565b6000602082019050818103600083015261266a816122a0565b9050919050565b6000602082019050818103600083015261268a816122c3565b9050919050565b600060208201905081810360008301526126aa816122e6565b9050919050565b600060208201905081810360008301526126ca81612309565b9050919050565b600060208201905081810360008301526126ea8161232c565b9050919050565b6000602082019050818103600083015261270a8161234f565b9050919050565b6000602082019050818103600083015261272a81612372565b9050919050565b6000602082019050818103600083015261274a81612395565b9050919050565b6000602082019050818103600083015261276a816123b8565b9050919050565b6000602082019050818103600083015261278a816123db565b9050919050565b600060208201905081810360008301526127aa816123fe565b9050919050565b600060208201905081810360008301526127ca81612421565b9050919050565b600060208201905081810360008301526127ea81612444565b9050919050565b6000602082019050818103600083015261280a81612467565b9050919050565b6000602082019050818103600083015261282a8161248a565b9050919050565b6000602082019050818103600083015261284a816124ad565b9050919050565b6000602082019050818103600083015261286a816124d0565b9050919050565b6000602082019050818103600083015261288a816124f3565b9050919050565b60006020820190506128a66000830184612516565b92915050565b60006128b66128c7565b90506128c28282612b43565b919050565b6000604051905090565b600067ffffffffffffffff8211156128ec576128eb612c7b565b5b6128f582612caa565b9050602081019050919050565b600067ffffffffffffffff82111561291d5761291c612c7b565b5b61292682612caa565b9050602081019050919050565b60008190508160005260206000209050919050565b600081519050919050565b600081519050919050565b600082825260208201905092915050565b600081905092915050565b600082825260208201905092915050565b600081905092915050565b60006129a182612ac5565b91506129ac83612ac5565b9250827fffffffffffffffffffffffffffffffffffffffffffffffffffffffffffffffff038211156129e1576129e0612bee565b5b828201905092915050565b60006129f782612ac5565b9150612a0283612ac5565b925082612a1257612a11612c1d565b5b828204905092915050565b6000612a2882612ac5565b9150612a3383612ac5565b925082821015612a4657612a45612bee565b5b828203905092915050565b6000612a5c82612aa5565b9050919050565b60008115159050919050565b6000819050919050565b60007fffffffff0000000000000000000000000000000000000000000000000000000082169050919050565b600073ffffffffffffffffffffffffffffffffffffffff82169050919050565b6000819050919050565b82818337600083830152505050565b60005b83811015612afc578082015181840152602081019050612ae1565b83811115612b0b576000848401525b50505050565b60006002820490506001821680612b2957607f821691505b60208210811415612b3d57612b3c612c4c565b5b50919050565b612b4c82612caa565b810181811067ffffffffffffffff82111715612b6b57612b6a612c7b565b5b80604052505050565b6000612b7f82612ac5565b91507fffffffffffffffffffffffffffffffffffffffffffffffffffffffffffffffff821415612bb257612bb1612bee565b5b600182019050919050565b6000612bc882612ac5565b9150612bd383612ac5565b925082612be357612be2612c1d565b5b828206905092915050565b7f4e487b7100000000000000000000000000000000000000000000000000000000600052601160045260246000fd5b7f4e487b7100000000000000000000000000000000000000000000000000000000600052601260045260246000fd5b7f4e487b7100000000000000000000000000000000000000000000000000000000600052602260045260246000fd5b7f4e487b7100000000000000000000000000000000000000000000000000000000600052604160045260246000fd5b6000601f19601f8301169050919050565b7f4552433732313a207472616e7366657220746f206e6f6e20455243373231526560008201527f63656976657220696d706c656d656e7465720000000000000000000000000000602082015250565b7f496e76616c696420686173680000000000000000000000000000000000000000600082015250565b7f4552433732313a20746f6b656e20616c7265616479206d696e74656400000000600082015250565b7f4552433732313a207472616e7366657220746f20746865207a65726f2061646460008201527f7265737300000000000000000000000000000000000000000000000000000000602082015250565b7f4552433732313a20617070726f766520746f2063616c6c657200000000000000600082015250565b7f4552433732313a206f70657261746f7220717565727920666f72206e6f6e657860008201527f697374656e7420746f6b656e0000000000000000000000000000000000000000602082015250565b7f6e6f7420616c6c6f776564000000000000000000000000000000000000000000600082015250565b7f4552433732313a20617070726f76652063616c6c6572206973206e6f74206f7760008201527f6e6572206e6f7220617070726f76656420666f7220616c6c0000000000000000602082015250565b7f4552433732313a2062616c616e636520717565727920666f7220746865207a6560008201527f726f206164647265737300000000000000000000000000000000000000000000602082015250565b7f4552433732313a206f776e657220717565727920666f72206e6f6e657869737460008201527f656e7420746f6b656e0000000000000000000000000000000000000000000000602082015250565b7f45524337323155524953746f726167653a2055524920736574206f66206e6f6e60008201527f6578697374656e7420746f6b656e000000000000000000000000000000000000602082015250565b7f4552433732313a206d696e7420746f20746865207a65726f2061646472657373600082015250565b7f45524337323155524953746f726167653a2055524920717565727920666f722060008201527f6e6f6e6578697374656e7420746f6b656e000000000000000000000000000000602082015250565b7f4552433732313a20617070726f76656420717565727920666f72206e6f6e657860008201527f697374656e7420746f6b656e0000000000000000000000000000000000000000602082015250565b7f4552433732313a207472616e73666572206f6620746f6b656e2074686174206960008201527f73206e6f74206f776e0000000000000000000000000000000000000000000000602082015250565b7f4552433732314d657461646174613a2055524920717565727920666f72206e6f60008201527f6e6578697374656e7420746f6b656e0000000000000000000000000000000000602082015250565b7f4552433732313a20617070726f76616c20746f2063757272656e74206f776e6560008201527f7200000000000000000000000000000000000000000000000000000000000000602082015250565b7f4552433732313a207472616e736665722063616c6c6572206973206e6f74206f60008201527f776e6572206e6f7220617070726f766564000000000000000000000000000000602082015250565b61319481612a51565b811461319f57600080fd5b50565b6131ab81612a63565b81146131b657600080fd5b50565b6131c281612a6f565b81146131cd57600080fd5b50565b6131d981612a79565b81146131e457600080fd5b50565b6131f081612ac5565b81146131fb57600080fd5b5056fea2646970667358221220ad9b146408c9496561754e60845920babcc730aab5549a6c5ce140d016a4541364736f6c63430008010033",
  "immutableReferences": {},
  "source": "// SPDX-License-Identifier: MIT\npragma solidity ^0.8.0;\n\nimport \"@openzeppelin/contracts/token/ERC721/ERC721.sol\";\nimport \"@openzeppelin/contracts/token/ERC721/extensions/ERC721URIStorage.sol\";\nimport \"@openzeppelin/contracts/utils/Strings.sol\";\n\n\ncontract NFT is ERC721,ERC721URIStorage{\n    uint256 public totalNFT=0;\n    uint256 public landNFT=0;\n    uint256 public lordNFT=0;\n    address adminNft;\n    event Breach(address user, uint256 tokenId);\n    event lordMinted(uint256 tokenId);\n    event landMinted(uint256 tokenId);\n    string private salt=\"1234\";\n    \n    constructor() ERC721(\"ProperT\",\"PRT\"){\n        adminNft = msg.sender;\n    }\n\n    function deposit(uint256 amount) public payable{}\n\n    function mint(bytes32 hashVal, string memory _tokenURI, bool lord) public payable {\n        bytes memory  preHash = bytes(abi.encodePacked(Strings.toString(msg.value),salt));\n        bytes32 expectedHash = sha256(preHash);\n        if(expectedHash != hashVal){\n            emit Breach(msg.sender,totalNFT+1);\n            revert(\"Invalid hash\");\n        }\n        deposit(msg.value);\n        totalNFT+=1;\n        _mint(msg.sender, totalNFT);\n        _setTokenURI(totalNFT,_tokenURI);\n        if(lord) emit lordMinted(totalNFT);\n        else emit landMinted(totalNFT);\n    }\n\n    function _burn(uint256 tokenId) internal override(ERC721URIStorage, ERC721) {\n        super._burn(tokenId);\n    }\n\n    function tokenURI(uint256 tokenId)\n        public\n        view\n        override(ERC721URIStorage,ERC721)\n        returns (string memory)\n    {\n        return super.tokenURI(tokenId);\n    }\n\n    function getTotalSupply() public view returns(uint256){\n        return totalNFT;\n    }\n\n    function updateTokenURI(uint256 tokenId, string memory _newURI) public{\n        require(msg.sender==ownerOf(tokenId),\"not allowed\");\n        _setTokenURI(tokenId, _newURI);\n    }\n\n\n    function setSalt(string memory newSalt) private {\n        require(msg.sender==adminNft);\n        salt=newSalt;\n    }\n\n}",
  "sourcePath": "/Users/ayush/Desktop/map-maker/server/contracts/MintNft.sol",
  "compiler": {
    "name": "solc",
    "version": "0.8.1+commit.df193b15.Emscripten.clang"
  },
  "schemaVersion": "3.4.2",
  "updatedAt": "2022-02-07T04:37:31.914Z",
  "networkType": "ethereum",
  "devdoc": {
    "kind": "dev",
    "methods": {
      "approve(address,uint256)": {
        "details": "See {IERC721-approve}."
      },
      "balanceOf(address)": {
        "details": "See {IERC721-balanceOf}."
      },
      "getApproved(uint256)": {
        "details": "See {IERC721-getApproved}."
      },
      "isApprovedForAll(address,address)": {
        "details": "See {IERC721-isApprovedForAll}."
      },
      "name()": {
        "details": "See {IERC721Metadata-name}."
      },
      "ownerOf(uint256)": {
        "details": "See {IERC721-ownerOf}."
      },
      "safeTransferFrom(address,address,uint256)": {
        "details": "See {IERC721-safeTransferFrom}."
      },
      "safeTransferFrom(address,address,uint256,bytes)": {
        "details": "See {IERC721-safeTransferFrom}."
      },
      "setApprovalForAll(address,bool)": {
        "details": "See {IERC721-setApprovalForAll}."
      },
      "supportsInterface(bytes4)": {
        "details": "See {IERC165-supportsInterface}."
      },
      "symbol()": {
        "details": "See {IERC721Metadata-symbol}."
      },
      "transferFrom(address,address,uint256)": {
        "details": "See {IERC721-transferFrom}."
      }
    },
    "version": 1
  },
  "userdoc": {
    "kind": "user",
    "methods": {},
    "version": 1
  }
}